{
  "_format": "hh-sol-artifact-1",
  "contractName": "Caravel",
  "sourceName": "contracts/Caravel.sol",
  "abi": [
    {
      "inputs": [
        {
          "internalType": "string",
          "name": "_initBaseURI",
          "type": "string"
        }
      ],
      "stateMutability": "nonpayable",
      "type": "constructor"
    },
    {
      "anonymous": false,
      "inputs": [
        {
          "indexed": true,
          "internalType": "address",
          "name": "account",
          "type": "address"
        },
        {
          "indexed": true,
          "internalType": "address",
          "name": "operator",
          "type": "address"
        },
        {
          "indexed": false,
          "internalType": "bool",
          "name": "approved",
          "type": "bool"
        }
      ],
      "name": "ApprovalForAll",
      "type": "event"
    },
    {
      "anonymous": false,
      "inputs": [
        {
          "indexed": true,
          "internalType": "address",
          "name": "previousOwner",
          "type": "address"
        },
        {
          "indexed": true,
          "internalType": "address",
          "name": "newOwner",
          "type": "address"
        }
      ],
      "name": "OwnershipTransferred",
      "type": "event"
    },
    {
      "anonymous": false,
      "inputs": [
        {
          "indexed": true,
          "internalType": "address",
          "name": "operator",
          "type": "address"
        },
        {
          "indexed": true,
          "internalType": "address",
          "name": "from",
          "type": "address"
        },
        {
          "indexed": true,
          "internalType": "address",
          "name": "to",
          "type": "address"
        },
        {
          "indexed": false,
          "internalType": "uint256[]",
          "name": "ids",
          "type": "uint256[]"
        },
        {
          "indexed": false,
          "internalType": "uint256[]",
          "name": "values",
          "type": "uint256[]"
        }
      ],
      "name": "TransferBatch",
      "type": "event"
    },
    {
      "anonymous": false,
      "inputs": [
        {
          "indexed": true,
          "internalType": "address",
          "name": "operator",
          "type": "address"
        },
        {
          "indexed": true,
          "internalType": "address",
          "name": "from",
          "type": "address"
        },
        {
          "indexed": true,
          "internalType": "address",
          "name": "to",
          "type": "address"
        },
        {
          "indexed": false,
          "internalType": "uint256",
          "name": "id",
          "type": "uint256"
        },
        {
          "indexed": false,
          "internalType": "uint256",
          "name": "value",
          "type": "uint256"
        }
      ],
      "name": "TransferSingle",
      "type": "event"
    },
    {
      "anonymous": false,
      "inputs": [
        {
          "indexed": false,
          "internalType": "string",
          "name": "value",
          "type": "string"
        },
        {
          "indexed": true,
          "internalType": "uint256",
          "name": "id",
          "type": "uint256"
        }
      ],
      "name": "URI",
      "type": "event"
    },
    {
      "anonymous": false,
      "inputs": [
        {
          "indexed": false,
          "internalType": "address",
          "name": "_owner",
          "type": "address"
        },
        {
          "indexed": false,
          "internalType": "uint256",
          "name": "_boatId",
          "type": "uint256"
        },
        {
          "components": [
            {
              "internalType": "uint8",
              "name": "x",
              "type": "uint8"
            },
            {
              "internalType": "uint8",
              "name": "y",
              "type": "uint8"
            }
          ],
          "indexed": false,
          "internalType": "struct Caravel.Position",
          "name": "_position",
          "type": "tuple"
        }
      ],
      "name": "boatMoved",
      "type": "event"
    },
    {
      "inputs": [
        {
          "internalType": "address",
          "name": "account",
          "type": "address"
        },
        {
          "internalType": "uint256",
          "name": "id",
          "type": "uint256"
        }
      ],
      "name": "balanceOf",
      "outputs": [
        {
          "internalType": "uint256",
          "name": "",
          "type": "uint256"
        }
      ],
      "stateMutability": "view",
      "type": "function"
    },
    {
      "inputs": [
        {
          "internalType": "address[]",
          "name": "accounts",
          "type": "address[]"
        },
        {
          "internalType": "uint256[]",
          "name": "ids",
          "type": "uint256[]"
        }
      ],
      "name": "balanceOfBatch",
      "outputs": [
        {
          "internalType": "uint256[]",
          "name": "",
          "type": "uint256[]"
        }
      ],
      "stateMutability": "view",
      "type": "function"
    },
    {
      "inputs": [],
      "name": "baseExtension",
      "outputs": [
        {
          "internalType": "string",
          "name": "",
          "type": "string"
        }
      ],
      "stateMutability": "view",
      "type": "function"
    },
    {
      "inputs": [],
      "name": "cost",
      "outputs": [
        {
          "internalType": "uint256",
          "name": "",
          "type": "uint256"
        }
      ],
      "stateMutability": "view",
      "type": "function"
    },
    {
      "inputs": [
        {
          "internalType": "address",
          "name": "account",
          "type": "address"
        },
        {
          "internalType": "address",
          "name": "operator",
          "type": "address"
        }
      ],
      "name": "isApprovedForAll",
      "outputs": [
        {
          "internalType": "bool",
          "name": "",
          "type": "bool"
        }
      ],
      "stateMutability": "view",
      "type": "function"
    },
    {
      "inputs": [],
      "name": "maxMintAmount",
      "outputs": [
        {
          "internalType": "uint256",
          "name": "",
          "type": "uint256"
        }
      ],
      "stateMutability": "view",
      "type": "function"
    },
    {
      "inputs": [],
      "name": "maxSupply",
      "outputs": [
        {
          "internalType": "uint256",
          "name": "",
          "type": "uint256"
        }
      ],
      "stateMutability": "view",
      "type": "function"
    },
    {
      "inputs": [
        {
          "internalType": "uint32",
          "name": "_mintAmount",
          "type": "uint32"
        }
      ],
      "name": "mint",
      "outputs": [],
      "stateMutability": "payable",
      "type": "function"
    },
    {
      "inputs": [
        {
          "internalType": "uint32",
          "name": "boatId",
          "type": "uint32"
        },
        {
          "internalType": "uint8",
          "name": "x",
          "type": "uint8"
        },
        {
          "internalType": "uint8",
          "name": "y",
          "type": "uint8"
        }
      ],
      "name": "moveBoat",
      "outputs": [],
      "stateMutability": "nonpayable",
      "type": "function"
    },
    {
      "inputs": [],
      "name": "owner",
      "outputs": [
        {
          "internalType": "address",
          "name": "",
          "type": "address"
        }
      ],
      "stateMutability": "view",
      "type": "function"
    },
    {
      "inputs": [
        {
          "internalType": "bool",
          "name": "_state",
          "type": "bool"
        }
      ],
      "name": "pause",
      "outputs": [],
      "stateMutability": "nonpayable",
      "type": "function"
    },
    {
      "inputs": [],
      "name": "paused",
      "outputs": [
        {
          "internalType": "bool",
          "name": "",
          "type": "bool"
        }
      ],
      "stateMutability": "view",
      "type": "function"
    },
    {
      "inputs": [],
      "name": "renounceOwnership",
      "outputs": [],
      "stateMutability": "nonpayable",
      "type": "function"
    },
    {
      "inputs": [
        {
          "internalType": "address",
          "name": "from",
          "type": "address"
        },
        {
          "internalType": "address",
          "name": "to",
          "type": "address"
        },
        {
          "internalType": "uint256[]",
          "name": "ids",
          "type": "uint256[]"
        },
        {
          "internalType": "uint256[]",
          "name": "amounts",
          "type": "uint256[]"
        },
        {
          "internalType": "bytes",
          "name": "data",
          "type": "bytes"
        }
      ],
      "name": "safeBatchTransferFrom",
      "outputs": [],
      "stateMutability": "nonpayable",
      "type": "function"
    },
    {
      "inputs": [
        {
          "internalType": "address",
          "name": "from",
          "type": "address"
        },
        {
          "internalType": "address",
          "name": "to",
          "type": "address"
        },
        {
          "internalType": "uint256",
          "name": "id",
          "type": "uint256"
        },
        {
          "internalType": "uint256",
          "name": "amount",
          "type": "uint256"
        },
        {
          "internalType": "bytes",
          "name": "data",
          "type": "bytes"
        }
      ],
      "name": "safeTransferFrom",
      "outputs": [],
      "stateMutability": "nonpayable",
      "type": "function"
    },
    {
      "inputs": [
        {
          "internalType": "address",
          "name": "operator",
          "type": "address"
        },
        {
          "internalType": "bool",
          "name": "approved",
          "type": "bool"
        }
      ],
      "name": "setApprovalForAll",
      "outputs": [],
      "stateMutability": "nonpayable",
      "type": "function"
    },
    {
      "inputs": [
        {
          "internalType": "string",
          "name": "_newBaseExtension",
          "type": "string"
        }
      ],
      "name": "setBaseExtension",
      "outputs": [],
      "stateMutability": "nonpayable",
      "type": "function"
    },
    {
      "inputs": [
        {
          "internalType": "string",
          "name": "_newBaseURI",
          "type": "string"
        }
      ],
      "name": "setBaseURI",
      "outputs": [],
      "stateMutability": "nonpayable",
      "type": "function"
    },
    {
      "inputs": [
        {
          "internalType": "uint256",
          "name": "_newCost",
          "type": "uint256"
        }
      ],
      "name": "setCost",
      "outputs": [],
      "stateMutability": "nonpayable",
      "type": "function"
    },
    {
      "inputs": [
        {
          "internalType": "bytes4",
          "name": "interfaceId",
          "type": "bytes4"
        }
      ],
      "name": "supportsInterface",
      "outputs": [
        {
          "internalType": "bool",
          "name": "",
          "type": "bool"
        }
      ],
      "stateMutability": "view",
      "type": "function"
    },
    {
      "inputs": [
        {
          "internalType": "address",
          "name": "newOwner",
          "type": "address"
        }
      ],
      "name": "transferOwnership",
      "outputs": [],
      "stateMutability": "nonpayable",
      "type": "function"
    },
    {
      "inputs": [
        {
          "internalType": "uint256",
          "name": "",
          "type": "uint256"
        }
      ],
      "name": "uri",
      "outputs": [
        {
          "internalType": "string",
          "name": "",
          "type": "string"
        }
      ],
      "stateMutability": "view",
      "type": "function"
    },
    {
      "inputs": [],
      "name": "withdraw",
      "outputs": [],
      "stateMutability": "payable",
      "type": "function"
    }
  ],
  "bytecode": "0x60806040526040518060400160405280600581526020017f2e6a736f6e000000000000000000000000000000000000000000000000000000815250600590805190602001906200005192919062000a8a565b5066b1a2bc2ec5000060065561271060075560146008556000600960006101000a81548160ff0219169083151502179055503480156200009057600080fd5b50604051620050d9380380620050d98339818101604052810190620000b6919062000cd7565b80620000c8816200011360201b60201c565b50620000e9620000dd6200012f60201b60201c565b6200013760201b60201c565b620000fa81620001fd60201b60201c565b6200010c6001620002a860201b60201c565b50620014d5565b80600290805190602001906200012b92919062000a8a565b5050565b600033905090565b6000600360009054906101000a900473ffffffffffffffffffffffffffffffffffffffff16905081600360006101000a81548173ffffffffffffffffffffffffffffffffffffffff021916908373ffffffffffffffffffffffffffffffffffffffff1602179055508173ffffffffffffffffffffffffffffffffffffffff168173ffffffffffffffffffffffffffffffffffffffff167f8be0079c531659141344cd1fd0a4f28419497f9722a3daafe3b4186f6b6457e060405160405180910390a35050565b6200020d6200012f60201b60201c565b73ffffffffffffffffffffffffffffffffffffffff16620002336200060560201b60201c565b73ffffffffffffffffffffffffffffffffffffffff16146200028c576040517f08c379a0000000000000000000000000000000000000000000000000000000008152600401620002839062000d89565b60405180910390fd5b8060049080519060200190620002a492919062000a8a565b5050565b620002b86200012f60201b60201c565b73ffffffffffffffffffffffffffffffffffffffff16620002de6200060560201b60201c565b73ffffffffffffffffffffffffffffffffffffffff161462000337576040517f08c379a00000000000000000000000000000000000000000000000000000000081526004016200032e9062000d89565b60405180910390fd5b600960009054906101000a900460ff16156200035257600080fd5b6007548163ffffffff161115620003a0576040517f08c379a0000000000000000000000000000000000000000000000000000000008152600401620003979062000dfb565b60405180910390fd5b620003b06200060560201b60201c565b73ffffffffffffffffffffffffffffffffffffffff163373ffffffffffffffffffffffffffffffffffffffff161462000407578063ffffffff16600654620003f9919062000e56565b3410156200040657600080fd5b5b60005b6001811015620005b1576040518060a001604052806040518060400160405280600160ff168152602001600260ff1681525081526020016040518060400160405280600160ff168152602001600160ff168152508152602001600161ffff168152602001600161ffff168152602001600161ffff16815250600a600083815260200190815260200160002060008201518160000160008201518160000160006101000a81548160ff021916908360ff16021790555060208201518160000160016101000a81548160ff021916908360ff160217905550505060208201518160010160008201518160000160006101000a81548160ff021916908360ff16021790555060208201518160000160016101000a81548160ff021916908360ff160217905550505060408201518160020160006101000a81548161ffff021916908361ffff16021790555060608201518160020160026101000a81548161ffff021916908361ffff16021790555060808201518160020160046101000a81548161ffff021916908361ffff1602179055509050508080620005a89062000eb7565b9150506200040a565b50620006023360018363ffffffff166040518060400160405280600481526020017f74657374000000000000000000000000000000000000000000000000000000008152506200062f60201b60201c565b50565b6000600360009054906101000a900473ffffffffffffffffffffffffffffffffffffffff16905090565b600073ffffffffffffffffffffffffffffffffffffffff168473ffffffffffffffffffffffffffffffffffffffff161415620006a2576040517f08c379a0000000000000000000000000000000000000000000000000000000008152600401620006999062000f7b565b60405180910390fd5b6000620006b46200012f60201b60201c565b9050620006ed81600087620006cf88620007f460201b60201c565b620006e088620007f460201b60201c565b876200087560201b60201c565b8260008086815260200190815260200160002060008773ffffffffffffffffffffffffffffffffffffffff1673ffffffffffffffffffffffffffffffffffffffff16815260200190815260200160002060008282546200074e919062000f9d565b925050819055508473ffffffffffffffffffffffffffffffffffffffff16600073ffffffffffffffffffffffffffffffffffffffff168273ffffffffffffffffffffffffffffffffffffffff167fc3d58168c5ae7397731d063d5bbf3d657854427343f4c083240f7aacaa2d0f628787604051620007ce9291906200100b565b60405180910390a4620007ed816000878787876200087d60201b60201c565b5050505050565b60606000600167ffffffffffffffff81111562000816576200081562000b69565b5b604051908082528060200260200182016040528015620008455781602001602082028036833780820191505090505b509050828160008151811062000860576200085f62001038565b5b60200260200101818152505080915050919050565b505050505050565b620008a98473ffffffffffffffffffffffffffffffffffffffff1662000a7760201b620014651760201c565b1562000a6f578373ffffffffffffffffffffffffffffffffffffffff1663f23a6e6187878686866040518663ffffffff1660e01b8152600401620008f295949392919062001109565b6020604051808303816000875af19250505080156200093157506040513d601f19601f820116820180604052508101906200092e9190620011ca565b60015b620009e3576200094062001209565b806308c379a01415620009a45750620009586200122e565b80620009655750620009a6565b806040517f08c379a00000000000000000000000000000000000000000000000000000000081526004016200099b91906200131c565b60405180910390fd5b505b6040517f08c379a0000000000000000000000000000000000000000000000000000000008152600401620009da90620013b6565b60405180910390fd5b63f23a6e6160e01b7bffffffffffffffffffffffffffffffffffffffffffffffffffffffff1916817bffffffffffffffffffffffffffffffffffffffffffffffffffffffff19161462000a6d576040517f08c379a000000000000000000000000000000000000000000000000000000000815260040162000a64906200144e565b60405180910390fd5b505b505050505050565b600080823b905060008111915050919050565b82805462000a98906200149f565b90600052602060002090601f01602090048101928262000abc576000855562000b08565b82601f1062000ad757805160ff191683800117855562000b08565b8280016001018555821562000b08579182015b8281111562000b0757825182559160200191906001019062000aea565b5b50905062000b17919062000b1b565b5090565b5b8082111562000b3657600081600090555060010162000b1c565b5090565b6000604051905090565b600080fd5b600080fd5b600080fd5b600080fd5b6000601f19601f8301169050919050565b7f4e487b7100000000000000000000000000000000000000000000000000000000600052604160045260246000fd5b62000ba38262000b58565b810181811067ffffffffffffffff8211171562000bc55762000bc462000b69565b5b80604052505050565b600062000bda62000b3a565b905062000be8828262000b98565b919050565b600067ffffffffffffffff82111562000c0b5762000c0a62000b69565b5b62000c168262000b58565b9050602081019050919050565b60005b8381101562000c4357808201518184015260208101905062000c26565b8381111562000c53576000848401525b50505050565b600062000c7062000c6a8462000bed565b62000bce565b90508281526020810184848401111562000c8f5762000c8e62000b53565b5b62000c9c84828562000c23565b509392505050565b600082601f83011262000cbc5762000cbb62000b4e565b5b815162000cce84826020860162000c59565b91505092915050565b60006020828403121562000cf05762000cef62000b44565b5b600082015167ffffffffffffffff81111562000d115762000d1062000b49565b5b62000d1f8482850162000ca4565b91505092915050565b600082825260208201905092915050565b7f4f776e61626c653a2063616c6c6572206973206e6f7420746865206f776e6572600082015250565b600062000d7160208362000d28565b915062000d7e8262000d39565b602082019050919050565b6000602082019050818103600083015262000da48162000d62565b9050919050565b7f736f6c64206f7574000000000000000000000000000000000000000000000000600082015250565b600062000de360088362000d28565b915062000df08262000dab565b602082019050919050565b6000602082019050818103600083015262000e168162000dd4565b9050919050565b6000819050919050565b7f4e487b7100000000000000000000000000000000000000000000000000000000600052601160045260246000fd5b600062000e638262000e1d565b915062000e708362000e1d565b9250817fffffffffffffffffffffffffffffffffffffffffffffffffffffffffffffffff048311821515161562000eac5762000eab62000e27565b5b828202905092915050565b600062000ec48262000e1d565b91507fffffffffffffffffffffffffffffffffffffffffffffffffffffffffffffffff82141562000efa5762000ef962000e27565b5b600182019050919050565b7f455243313135353a206d696e7420746f20746865207a65726f2061646472657360008201527f7300000000000000000000000000000000000000000000000000000000000000602082015250565b600062000f6360218362000d28565b915062000f708262000f05565b604082019050919050565b6000602082019050818103600083015262000f968162000f54565b9050919050565b600062000faa8262000e1d565b915062000fb78362000e1d565b9250827fffffffffffffffffffffffffffffffffffffffffffffffffffffffffffffffff0382111562000fef5762000fee62000e27565b5b828201905092915050565b620010058162000e1d565b82525050565b600060408201905062001022600083018562000ffa565b62001031602083018462000ffa565b9392505050565b7f4e487b7100000000000000000000000000000000000000000000000000000000600052603260045260246000fd5b600073ffffffffffffffffffffffffffffffffffffffff82169050919050565b6000620010948262001067565b9050919050565b620010a68162001087565b82525050565b600081519050919050565b600082825260208201905092915050565b6000620010d582620010ac565b620010e18185620010b7565b9350620010f381856020860162000c23565b620010fe8162000b58565b840191505092915050565b600060a0820190506200112060008301886200109b565b6200112f60208301876200109b565b6200113e604083018662000ffa565b6200114d606083018562000ffa565b8181036080830152620011618184620010c8565b90509695505050505050565b60007fffffffff0000000000000000000000000000000000000000000000000000000082169050919050565b620011a4816200116d565b8114620011b057600080fd5b50565b600081519050620011c48162001199565b92915050565b600060208284031215620011e357620011e262000b44565b5b6000620011f384828501620011b3565b91505092915050565b60008160e01c9050919050565b600060033d11156200122b5760046000803e62001228600051620011fc565b90505b90565b600060443d10156200124057620012cd565b6200124a62000b3a565b60043d036004823e80513d602482011167ffffffffffffffff8211171562001274575050620012cd565b808201805167ffffffffffffffff811115620012945750505050620012cd565b80602083010160043d038501811115620012b3575050505050620012cd565b620012c48260200185018662000b98565b82955050505050505b90565b600081519050919050565b6000620012e882620012d0565b620012f4818562000d28565b93506200130681856020860162000c23565b620013118162000b58565b840191505092915050565b60006020820190508181036000830152620013388184620012db565b905092915050565b7f455243313135353a207472616e7366657220746f206e6f6e204552433131353560008201527f526563656976657220696d706c656d656e746572000000000000000000000000602082015250565b60006200139e60348362000d28565b9150620013ab8262001340565b604082019050919050565b60006020820190508181036000830152620013d1816200138f565b9050919050565b7f455243313135353a204552433131353552656365697665722072656a6563746560008201527f6420746f6b656e73000000000000000000000000000000000000000000000000602082015250565b60006200143660288362000d28565b91506200144382620013d8565b604082019050919050565b60006020820190508181036000830152620014698162001427565b9050919050565b7f4e487b7100000000000000000000000000000000000000000000000000000000600052602260045260246000fd5b60006002820490506001821680620014b857607f821691505b60208210811415620014cf57620014ce62001470565b5b50919050565b613bf480620014e56000396000f3fe60806040526004361061013f5760003560e01c806355f804b3116100b6578063c66828621161006f578063c668286214610417578063d5abeb0114610442578063da3ef23f1461046d578063e985e9c514610496578063f242432a146104d3578063f2fde38b146104fc5761013f565b806355f804b31461033c5780635c975abb14610365578063715018a6146103905780638da5cb5b146103a7578063a22cb465146103d2578063a71bbebe146103fb5761013f565b806313faede61161010857806313faede61461024d578063239c70ae146102785780632eb2c2d6146102a35780633ccfd60b146102cc57806344a0d68a146102d65780634e1273f4146102ff5761013f565b8062fdd58e1461014457806301ffc9a71461018157806302329a29146101be5780630e89341c146101e75780631023b2cc14610224575b600080fd5b34801561015057600080fd5b5061016b600480360381019061016691906123dc565b610525565b604051610178919061242b565b60405180910390f35b34801561018d57600080fd5b506101a860048036038101906101a3919061249e565b6105ee565b6040516101b591906124e6565b60405180910390f35b3480156101ca57600080fd5b506101e560048036038101906101e0919061252d565b6106d0565b005b3480156101f357600080fd5b5061020e6004803603810190610209919061255a565b610769565b60405161021b9190612620565b60405180910390f35b34801561023057600080fd5b5061024b600480360381019061024691906126b7565b6107fd565b005b34801561025957600080fd5b50610262610927565b60405161026f919061242b565b60405180910390f35b34801561028457600080fd5b5061028d61092d565b60405161029a919061242b565b60405180910390f35b3480156102af57600080fd5b506102ca60048036038101906102c59190612907565b610933565b005b6102d46109d4565b005b3480156102e257600080fd5b506102fd60048036038101906102f8919061255a565b610ad0565b005b34801561030b57600080fd5b5061032660048036038101906103219190612a99565b610b56565b6040516103339190612bcf565b60405180910390f35b34801561034857600080fd5b50610363600480360381019061035e9190612c92565b610c6f565b005b34801561037157600080fd5b5061037a610d05565b60405161038791906124e6565b60405180910390f35b34801561039c57600080fd5b506103a5610d18565b005b3480156103b357600080fd5b506103bc610da0565b6040516103c99190612cea565b60405180910390f35b3480156103de57600080fd5b506103f960048036038101906103f49190612d05565b610dca565b005b61041560048036038101906104109190612d45565b610de0565b005b34801561042357600080fd5b5061042c61110e565b6040516104399190612620565b60405180910390f35b34801561044e57600080fd5b5061045761119c565b604051610464919061242b565b60405180910390f35b34801561047957600080fd5b50610494600480360381019061048f9190612c92565b6111a2565b005b3480156104a257600080fd5b506104bd60048036038101906104b89190612d72565b611238565b6040516104ca91906124e6565b60405180910390f35b3480156104df57600080fd5b506104fa60048036038101906104f59190612db2565b6112cc565b005b34801561050857600080fd5b50610523600480360381019061051e9190612e49565b61136d565b005b60008073ffffffffffffffffffffffffffffffffffffffff168373ffffffffffffffffffffffffffffffffffffffff161415610596576040517f08c379a000000000000000000000000000000000000000000000000000000000815260040161058d90612ee8565b60405180910390fd5b60008083815260200190815260200160002060008473ffffffffffffffffffffffffffffffffffffffff1673ffffffffffffffffffffffffffffffffffffffff16815260200190815260200160002054905092915050565b60007fd9b67a26000000000000000000000000000000000000000000000000000000007bffffffffffffffffffffffffffffffffffffffffffffffffffffffff1916827bffffffffffffffffffffffffffffffffffffffffffffffffffffffff191614806106b957507f0e89341c000000000000000000000000000000000000000000000000000000007bffffffffffffffffffffffffffffffffffffffffffffffffffffffff1916827bffffffffffffffffffffffffffffffffffffffffffffffffffffffff1916145b806106c957506106c882611478565b5b9050919050565b6106d86114e2565b73ffffffffffffffffffffffffffffffffffffffff166106f6610da0565b73ffffffffffffffffffffffffffffffffffffffff161461074c576040517f08c379a000000000000000000000000000000000000000000000000000000000815260040161074390612f54565b60405180910390fd5b80600960006101000a81548160ff02191690831515021790555050565b60606002805461077890612fa3565b80601f01602080910402602001604051908101604052809291908181526020018280546107a490612fa3565b80156107f15780601f106107c6576101008083540402835291602001916107f1565b820191906000526020600020905b8154815290600101906020018083116107d457829003601f168201915b50505050509050919050565b600061080e8463ffffffff166114ea565b905080610850576040517f08c379a000000000000000000000000000000000000000000000000000000000815260040161084790613021565b60405180910390fd5b60405180604001604052808460ff1681526020018360ff16815250600a60008663ffffffff16815260200190815260200160002060010160008201518160000160006101000a81548160ff021916908360ff16021790555060208201518160000160016101000a81548160ff021916908360ff1602179055509050507fe3aa525f53406beae68f10ec6eb6c0da22154dab39e4bdcf1206e733d1a07a89338560405180604001604052808760ff1681526020018660ff16815250604051610919939291906130ba565b60405180910390a150505050565b60065481565b60085481565b61093b6114e2565b73ffffffffffffffffffffffffffffffffffffffff168573ffffffffffffffffffffffffffffffffffffffff16148061098157506109808561097b6114e2565b611238565b5b6109c0576040517f08c379a00000000000000000000000000000000000000000000000000000000081526004016109b790613163565b60405180910390fd5b6109cd8585858585611500565b5050505050565b6109dc6114e2565b73ffffffffffffffffffffffffffffffffffffffff166109fa610da0565b73ffffffffffffffffffffffffffffffffffffffff1614610a50576040517f08c379a0000000000000000000000000000000000000000000000000000000008152600401610a4790612f54565b60405180910390fd5b6000610a5a610da0565b73ffffffffffffffffffffffffffffffffffffffff1647604051610a7d906131b4565b60006040518083038185875af1925050503d8060008114610aba576040519150601f19603f3d011682016040523d82523d6000602084013e610abf565b606091505b5050905080610acd57600080fd5b50565b610ad86114e2565b73ffffffffffffffffffffffffffffffffffffffff16610af6610da0565b73ffffffffffffffffffffffffffffffffffffffff1614610b4c576040517f08c379a0000000000000000000000000000000000000000000000000000000008152600401610b4390612f54565b60405180910390fd5b8060068190555050565b60608151835114610b9c576040517f08c379a0000000000000000000000000000000000000000000000000000000008152600401610b939061323b565b60405180910390fd5b6000835167ffffffffffffffff811115610bb957610bb861270f565b5b604051908082528060200260200182016040528015610be75781602001602082028036833780820191505090505b50905060005b8451811015610c6457610c34858281518110610c0c57610c0b61325b565b5b6020026020010151858381518110610c2757610c2661325b565b5b6020026020010151610525565b828281518110610c4757610c4661325b565b5b60200260200101818152505080610c5d906132b9565b9050610bed565b508091505092915050565b610c776114e2565b73ffffffffffffffffffffffffffffffffffffffff16610c95610da0565b73ffffffffffffffffffffffffffffffffffffffff1614610ceb576040517f08c379a0000000000000000000000000000000000000000000000000000000008152600401610ce290612f54565b60405180910390fd5b8060049080519060200190610d01929190612291565b5050565b600960009054906101000a900460ff1681565b610d206114e2565b73ffffffffffffffffffffffffffffffffffffffff16610d3e610da0565b73ffffffffffffffffffffffffffffffffffffffff1614610d94576040517f08c379a0000000000000000000000000000000000000000000000000000000008152600401610d8b90612f54565b60405180910390fd5b610d9e6000611814565b565b6000600360009054906101000a900473ffffffffffffffffffffffffffffffffffffffff16905090565b610ddc610dd56114e2565b83836118da565b5050565b610de86114e2565b73ffffffffffffffffffffffffffffffffffffffff16610e06610da0565b73ffffffffffffffffffffffffffffffffffffffff1614610e5c576040517f08c379a0000000000000000000000000000000000000000000000000000000008152600401610e5390612f54565b60405180910390fd5b600960009054906101000a900460ff1615610e7657600080fd5b6007548163ffffffff161115610ec1576040517f08c379a0000000000000000000000000000000000000000000000000000000008152600401610eb89061334e565b60405180910390fd5b610ec9610da0565b73ffffffffffffffffffffffffffffffffffffffff163373ffffffffffffffffffffffffffffffffffffffff1614610f1c578063ffffffff16600654610f0f919061336e565b341015610f1b57600080fd5b5b60005b60018110156110c2576040518060a001604052806040518060400160405280600160ff168152602001600260ff1681525081526020016040518060400160405280600160ff168152602001600160ff168152508152602001600161ffff168152602001600161ffff168152602001600161ffff16815250600a600083815260200190815260200160002060008201518160000160008201518160000160006101000a81548160ff021916908360ff16021790555060208201518160000160016101000a81548160ff021916908360ff160217905550505060208201518160010160008201518160000160006101000a81548160ff021916908360ff16021790555060208201518160000160016101000a81548160ff021916908360ff160217905550505060408201518160020160006101000a81548161ffff021916908361ffff16021790555060608201518160020160026101000a81548161ffff021916908361ffff16021790555060808201518160020160046101000a81548161ffff021916908361ffff16021790555090505080806110ba906132b9565b915050610f1f565b5061110b3360018363ffffffff166040518060400160405280600481526020017f7465737400000000000000000000000000000000000000000000000000000000815250611a47565b50565b6005805461111b90612fa3565b80601f016020809104026020016040519081016040528092919081815260200182805461114790612fa3565b80156111945780601f1061116957610100808354040283529160200191611194565b820191906000526020600020905b81548152906001019060200180831161117757829003601f168201915b505050505081565b60075481565b6111aa6114e2565b73ffffffffffffffffffffffffffffffffffffffff166111c8610da0565b73ffffffffffffffffffffffffffffffffffffffff161461121e576040517f08c379a000000000000000000000000000000000000000000000000000000000815260040161121590612f54565b60405180910390fd5b8060059080519060200190611234929190612291565b5050565b6000600160008473ffffffffffffffffffffffffffffffffffffffff1673ffffffffffffffffffffffffffffffffffffffff16815260200190815260200160002060008373ffffffffffffffffffffffffffffffffffffffff1673ffffffffffffffffffffffffffffffffffffffff16815260200190815260200160002060009054906101000a900460ff16905092915050565b6112d46114e2565b73ffffffffffffffffffffffffffffffffffffffff168573ffffffffffffffffffffffffffffffffffffffff16148061131a5750611319856113146114e2565b611238565b5b611359576040517f08c379a00000000000000000000000000000000000000000000000000000000081526004016113509061343a565b60405180910390fd5b6113668585858585611bdd565b5050505050565b6113756114e2565b73ffffffffffffffffffffffffffffffffffffffff16611393610da0565b73ffffffffffffffffffffffffffffffffffffffff16146113e9576040517f08c379a00000000000000000000000000000000000000000000000000000000081526004016113e090612f54565b60405180910390fd5b600073ffffffffffffffffffffffffffffffffffffffff168173ffffffffffffffffffffffffffffffffffffffff161415611459576040517f08c379a0000000000000000000000000000000000000000000000000000000008152600401611450906134cc565b60405180910390fd5b61146281611814565b50565b600080823b905060008111915050919050565b60007f01ffc9a7000000000000000000000000000000000000000000000000000000007bffffffffffffffffffffffffffffffffffffffffffffffffffffffff1916827bffffffffffffffffffffffffffffffffffffffffffffffffffffffff1916149050919050565b600033905090565b6000806114f73384610525565b14159050919050565b8151835114611544576040517f08c379a000000000000000000000000000000000000000000000000000000000815260040161153b9061355e565b60405180910390fd5b600073ffffffffffffffffffffffffffffffffffffffff168473ffffffffffffffffffffffffffffffffffffffff1614156115b4576040517f08c379a00000000000000000000000000000000000000000000000000000000081526004016115ab906135f0565b60405180910390fd5b60006115be6114e2565b90506115ce818787878787611e5f565b60005b845181101561177f5760008582815181106115ef576115ee61325b565b5b60200260200101519050600085838151811061160e5761160d61325b565b5b60200260200101519050600080600084815260200190815260200160002060008b73ffffffffffffffffffffffffffffffffffffffff1673ffffffffffffffffffffffffffffffffffffffff168152602001908152602001600020549050818110156116af576040517f08c379a00000000000000000000000000000000000000000000000000000000081526004016116a690613682565b60405180910390fd5b81810360008085815260200190815260200160002060008c73ffffffffffffffffffffffffffffffffffffffff1673ffffffffffffffffffffffffffffffffffffffff168152602001908152602001600020819055508160008085815260200190815260200160002060008b73ffffffffffffffffffffffffffffffffffffffff1673ffffffffffffffffffffffffffffffffffffffff168152602001908152602001600020600082825461176491906136a2565b9250508190555050505080611778906132b9565b90506115d1565b508473ffffffffffffffffffffffffffffffffffffffff168673ffffffffffffffffffffffffffffffffffffffff168273ffffffffffffffffffffffffffffffffffffffff167f4a39dc06d4c0dbc64b70af90fd698a233a518aa5d07e595d983b8c0526c8f7fb87876040516117f69291906136f8565b60405180910390a461180c818787878787611e67565b505050505050565b6000600360009054906101000a900473ffffffffffffffffffffffffffffffffffffffff16905081600360006101000a81548173ffffffffffffffffffffffffffffffffffffffff021916908373ffffffffffffffffffffffffffffffffffffffff1602179055508173ffffffffffffffffffffffffffffffffffffffff168173ffffffffffffffffffffffffffffffffffffffff167f8be0079c531659141344cd1fd0a4f28419497f9722a3daafe3b4186f6b6457e060405160405180910390a35050565b8173ffffffffffffffffffffffffffffffffffffffff168373ffffffffffffffffffffffffffffffffffffffff161415611949576040517f08c379a0000000000000000000000000000000000000000000000000000000008152600401611940906137a1565b60405180910390fd5b80600160008573ffffffffffffffffffffffffffffffffffffffff1673ffffffffffffffffffffffffffffffffffffffff16815260200190815260200160002060008473ffffffffffffffffffffffffffffffffffffffff1673ffffffffffffffffffffffffffffffffffffffff16815260200190815260200160002060006101000a81548160ff0219169083151502179055508173ffffffffffffffffffffffffffffffffffffffff168373ffffffffffffffffffffffffffffffffffffffff167f17307eab39ab6107e8899845ad3d59bd9653f200f220920489ca2b5937696c3183604051611a3a91906124e6565b60405180910390a3505050565b600073ffffffffffffffffffffffffffffffffffffffff168473ffffffffffffffffffffffffffffffffffffffff161415611ab7576040517f08c379a0000000000000000000000000000000000000000000000000000000008152600401611aae90613833565b60405180910390fd5b6000611ac16114e2565b9050611ae281600087611ad38861203f565b611adc8861203f565b87611e5f565b8260008086815260200190815260200160002060008773ffffffffffffffffffffffffffffffffffffffff1673ffffffffffffffffffffffffffffffffffffffff1681526020019081526020016000206000828254611b4191906136a2565b925050819055508473ffffffffffffffffffffffffffffffffffffffff16600073ffffffffffffffffffffffffffffffffffffffff168273ffffffffffffffffffffffffffffffffffffffff167fc3d58168c5ae7397731d063d5bbf3d657854427343f4c083240f7aacaa2d0f628787604051611bbf929190613853565b60405180910390a4611bd6816000878787876120b9565b5050505050565b600073ffffffffffffffffffffffffffffffffffffffff168473ffffffffffffffffffffffffffffffffffffffff161415611c4d576040517f08c379a0000000000000000000000000000000000000000000000000000000008152600401611c44906135f0565b60405180910390fd5b6000611c576114e2565b9050611c77818787611c688861203f565b611c718861203f565b87611e5f565b600080600086815260200190815260200160002060008873ffffffffffffffffffffffffffffffffffffffff1673ffffffffffffffffffffffffffffffffffffffff16815260200190815260200160002054905083811015611d0e576040517f08c379a0000000000000000000000000000000000000000000000000000000008152600401611d0590613682565b60405180910390fd5b83810360008087815260200190815260200160002060008973ffffffffffffffffffffffffffffffffffffffff1673ffffffffffffffffffffffffffffffffffffffff168152602001908152602001600020819055508360008087815260200190815260200160002060008873ffffffffffffffffffffffffffffffffffffffff1673ffffffffffffffffffffffffffffffffffffffff1681526020019081526020016000206000828254611dc391906136a2565b925050819055508573ffffffffffffffffffffffffffffffffffffffff168773ffffffffffffffffffffffffffffffffffffffff168373ffffffffffffffffffffffffffffffffffffffff167fc3d58168c5ae7397731d063d5bbf3d657854427343f4c083240f7aacaa2d0f628888604051611e40929190613853565b60405180910390a4611e568288888888886120b9565b50505050505050565b505050505050565b611e868473ffffffffffffffffffffffffffffffffffffffff16611465565b15612037578373ffffffffffffffffffffffffffffffffffffffff1663bc197c8187878686866040518663ffffffff1660e01b8152600401611ecc9594939291906138d1565b6020604051808303816000875af1925050508015611f0857506040513d601f19601f82011682018060405250810190611f05919061394e565b60015b611fae57611f14613988565b806308c379a01415611f715750611f296139aa565b80611f345750611f73565b806040517f08c379a0000000000000000000000000000000000000000000000000000000008152600401611f689190612620565b60405180910390fd5b505b6040517f08c379a0000000000000000000000000000000000000000000000000000000008152600401611fa590613ab2565b60405180910390fd5b63bc197c8160e01b7bffffffffffffffffffffffffffffffffffffffffffffffffffffffff1916817bffffffffffffffffffffffffffffffffffffffffffffffffffffffff191614612035576040517f08c379a000000000000000000000000000000000000000000000000000000000815260040161202c90613b44565b60405180910390fd5b505b505050505050565b60606000600167ffffffffffffffff81111561205e5761205d61270f565b5b60405190808252806020026020018201604052801561208c5781602001602082028036833780820191505090505b50905082816000815181106120a4576120a361325b565b5b60200260200101818152505080915050919050565b6120d88473ffffffffffffffffffffffffffffffffffffffff16611465565b15612289578373ffffffffffffffffffffffffffffffffffffffff1663f23a6e6187878686866040518663ffffffff1660e01b815260040161211e959493929190613b64565b6020604051808303816000875af192505050801561215a57506040513d601f19601f82011682018060405250810190612157919061394e565b60015b61220057612166613988565b806308c379a014156121c3575061217b6139aa565b8061218657506121c5565b806040517f08c379a00000000000000000000000000000000000000000000000000000000081526004016121ba9190612620565b60405180910390fd5b505b6040517f08c379a00000000000000000000000000000000000000000000000000000000081526004016121f790613ab2565b60405180910390fd5b63f23a6e6160e01b7bffffffffffffffffffffffffffffffffffffffffffffffffffffffff1916817bffffffffffffffffffffffffffffffffffffffffffffffffffffffff191614612287576040517f08c379a000000000000000000000000000000000000000000000000000000000815260040161227e90613b44565b60405180910390fd5b505b505050505050565b82805461229d90612fa3565b90600052602060002090601f0160209004810192826122bf5760008555612306565b82601f106122d857805160ff1916838001178555612306565b82800160010185558215612306579182015b828111156123055782518255916020019190600101906122ea565b5b5090506123139190612317565b5090565b5b80821115612330576000816000905550600101612318565b5090565b6000604051905090565b600080fd5b600080fd5b600073ffffffffffffffffffffffffffffffffffffffff82169050919050565b600061237382612348565b9050919050565b61238381612368565b811461238e57600080fd5b50565b6000813590506123a08161237a565b92915050565b6000819050919050565b6123b9816123a6565b81146123c457600080fd5b50565b6000813590506123d6816123b0565b92915050565b600080604083850312156123f3576123f261233e565b5b600061240185828601612391565b9250506020612412858286016123c7565b9150509250929050565b612425816123a6565b82525050565b6000602082019050612440600083018461241c565b92915050565b60007fffffffff0000000000000000000000000000000000000000000000000000000082169050919050565b61247b81612446565b811461248657600080fd5b50565b60008135905061249881612472565b92915050565b6000602082840312156124b4576124b361233e565b5b60006124c284828501612489565b91505092915050565b60008115159050919050565b6124e0816124cb565b82525050565b60006020820190506124fb60008301846124d7565b92915050565b61250a816124cb565b811461251557600080fd5b50565b60008135905061252781612501565b92915050565b6000602082840312156125435761254261233e565b5b600061255184828501612518565b91505092915050565b6000602082840312156125705761256f61233e565b5b600061257e848285016123c7565b91505092915050565b600081519050919050565b600082825260208201905092915050565b60005b838110156125c15780820151818401526020810190506125a6565b838111156125d0576000848401525b50505050565b6000601f19601f8301169050919050565b60006125f282612587565b6125fc8185612592565b935061260c8185602086016125a3565b612615816125d6565b840191505092915050565b6000602082019050818103600083015261263a81846125e7565b905092915050565b600063ffffffff82169050919050565b61265b81612642565b811461266657600080fd5b50565b60008135905061267881612652565b92915050565b600060ff82169050919050565b6126948161267e565b811461269f57600080fd5b50565b6000813590506126b18161268b565b92915050565b6000806000606084860312156126d0576126cf61233e565b5b60006126de86828701612669565b93505060206126ef868287016126a2565b9250506040612700868287016126a2565b9150509250925092565b600080fd5b7f4e487b7100000000000000000000000000000000000000000000000000000000600052604160045260246000fd5b612747826125d6565b810181811067ffffffffffffffff821117156127665761276561270f565b5b80604052505050565b6000612779612334565b9050612785828261273e565b919050565b600067ffffffffffffffff8211156127a5576127a461270f565b5b602082029050602081019050919050565b600080fd5b60006127ce6127c98461278a565b61276f565b905080838252602082019050602084028301858111156127f1576127f06127b6565b5b835b8181101561281a578061280688826123c7565b8452602084019350506020810190506127f3565b5050509392505050565b600082601f8301126128395761283861270a565b5b81356128498482602086016127bb565b91505092915050565b600080fd5b600067ffffffffffffffff8211156128725761287161270f565b5b61287b826125d6565b9050602081019050919050565b82818337600083830152505050565b60006128aa6128a584612857565b61276f565b9050828152602081018484840111156128c6576128c5612852565b5b6128d1848285612888565b509392505050565b600082601f8301126128ee576128ed61270a565b5b81356128fe848260208601612897565b91505092915050565b600080600080600060a086880312156129235761292261233e565b5b600061293188828901612391565b955050602061294288828901612391565b945050604086013567ffffffffffffffff81111561296357612962612343565b5b61296f88828901612824565b935050606086013567ffffffffffffffff8111156129905761298f612343565b5b61299c88828901612824565b925050608086013567ffffffffffffffff8111156129bd576129bc612343565b5b6129c9888289016128d9565b9150509295509295909350565b600067ffffffffffffffff8211156129f1576129f061270f565b5b602082029050602081019050919050565b6000612a15612a10846129d6565b61276f565b90508083825260208201905060208402830185811115612a3857612a376127b6565b5b835b81811015612a615780612a4d8882612391565b845260208401935050602081019050612a3a565b5050509392505050565b600082601f830112612a8057612a7f61270a565b5b8135612a90848260208601612a02565b91505092915050565b60008060408385031215612ab057612aaf61233e565b5b600083013567ffffffffffffffff811115612ace57612acd612343565b5b612ada85828601612a6b565b925050602083013567ffffffffffffffff811115612afb57612afa612343565b5b612b0785828601612824565b9150509250929050565b600081519050919050565b600082825260208201905092915050565b6000819050602082019050919050565b612b46816123a6565b82525050565b6000612b588383612b3d565b60208301905092915050565b6000602082019050919050565b6000612b7c82612b11565b612b868185612b1c565b9350612b9183612b2d565b8060005b83811015612bc2578151612ba98882612b4c565b9750612bb483612b64565b925050600181019050612b95565b5085935050505092915050565b60006020820190508181036000830152612be98184612b71565b905092915050565b600067ffffffffffffffff821115612c0c57612c0b61270f565b5b612c15826125d6565b9050602081019050919050565b6000612c35612c3084612bf1565b61276f565b905082815260208101848484011115612c5157612c50612852565b5b612c5c848285612888565b509392505050565b600082601f830112612c7957612c7861270a565b5b8135612c89848260208601612c22565b91505092915050565b600060208284031215612ca857612ca761233e565b5b600082013567ffffffffffffffff811115612cc657612cc5612343565b5b612cd284828501612c64565b91505092915050565b612ce481612368565b82525050565b6000602082019050612cff6000830184612cdb565b92915050565b60008060408385031215612d1c57612d1b61233e565b5b6000612d2a85828601612391565b9250506020612d3b85828601612518565b9150509250929050565b600060208284031215612d5b57612d5a61233e565b5b6000612d6984828501612669565b91505092915050565b60008060408385031215612d8957612d8861233e565b5b6000612d9785828601612391565b9250506020612da885828601612391565b9150509250929050565b600080600080600060a08688031215612dce57612dcd61233e565b5b6000612ddc88828901612391565b9550506020612ded88828901612391565b9450506040612dfe888289016123c7565b9350506060612e0f888289016123c7565b925050608086013567ffffffffffffffff811115612e3057612e2f612343565b5b612e3c888289016128d9565b9150509295509295909350565b600060208284031215612e5f57612e5e61233e565b5b6000612e6d84828501612391565b91505092915050565b7f455243313135353a2062616c616e636520717565727920666f7220746865207a60008201527f65726f2061646472657373000000000000000000000000000000000000000000602082015250565b6000612ed2602b83612592565b9150612edd82612e76565b604082019050919050565b60006020820190508181036000830152612f0181612ec5565b9050919050565b7f4f776e61626c653a2063616c6c6572206973206e6f7420746865206f776e6572600082015250565b6000612f3e602083612592565b9150612f4982612f08565b602082019050919050565b60006020820190508181036000830152612f6d81612f31565b9050919050565b7f4e487b7100000000000000000000000000000000000000000000000000000000600052602260045260246000fd5b60006002820490506001821680612fbb57607f821691505b60208210811415612fcf57612fce612f74565b5b50919050565b7f796f7520646f6e74206f776e207468697320746f6b656e000000000000000000600082015250565b600061300b601783612592565b915061301682612fd5565b602082019050919050565b6000602082019050818103600083015261303a81612ffe565b9050919050565b6000819050919050565b600061306661306161305c84612642565b613041565b6123a6565b9050919050565b6130768161304b565b82525050565b6130858161267e565b82525050565b6040820160008201516130a1600085018261307c565b5060208201516130b4602085018261307c565b50505050565b60006080820190506130cf6000830186612cdb565b6130dc602083018561306d565b6130e9604083018461308b565b949350505050565b7f455243313135353a207472616e736665722063616c6c6572206973206e6f742060008201527f6f776e6572206e6f7220617070726f7665640000000000000000000000000000602082015250565b600061314d603283612592565b9150613158826130f1565b604082019050919050565b6000602082019050818103600083015261317c81613140565b9050919050565b600081905092915050565b50565b600061319e600083613183565b91506131a98261318e565b600082019050919050565b60006131bf82613191565b9150819050919050565b7f455243313135353a206163636f756e747320616e6420696473206c656e67746860008201527f206d69736d617463680000000000000000000000000000000000000000000000602082015250565b6000613225602983612592565b9150613230826131c9565b604082019050919050565b6000602082019050818103600083015261325481613218565b9050919050565b7f4e487b7100000000000000000000000000000000000000000000000000000000600052603260045260246000fd5b7f4e487b7100000000000000000000000000000000000000000000000000000000600052601160045260246000fd5b60006132c4826123a6565b91507fffffffffffffffffffffffffffffffffffffffffffffffffffffffffffffffff8214156132f7576132f661328a565b5b600182019050919050565b7f736f6c64206f7574000000000000000000000000000000000000000000000000600082015250565b6000613338600883612592565b915061334382613302565b602082019050919050565b600060208201905081810360008301526133678161332b565b9050919050565b6000613379826123a6565b9150613384836123a6565b9250817fffffffffffffffffffffffffffffffffffffffffffffffffffffffffffffffff04831182151516156133bd576133bc61328a565b5b828202905092915050565b7f455243313135353a2063616c6c6572206973206e6f74206f776e6572206e6f7260008201527f20617070726f7665640000000000000000000000000000000000000000000000602082015250565b6000613424602983612592565b915061342f826133c8565b604082019050919050565b6000602082019050818103600083015261345381613417565b9050919050565b7f4f776e61626c653a206e6577206f776e657220697320746865207a65726f206160008201527f6464726573730000000000000000000000000000000000000000000000000000602082015250565b60006134b6602683612592565b91506134c18261345a565b604082019050919050565b600060208201905081810360008301526134e5816134a9565b9050919050565b7f455243313135353a2069647320616e6420616d6f756e7473206c656e6774682060008201527f6d69736d61746368000000000000000000000000000000000000000000000000602082015250565b6000613548602883612592565b9150613553826134ec565b604082019050919050565b600060208201905081810360008301526135778161353b565b9050919050565b7f455243313135353a207472616e7366657220746f20746865207a65726f20616460008201527f6472657373000000000000000000000000000000000000000000000000000000602082015250565b60006135da602583612592565b91506135e58261357e565b604082019050919050565b60006020820190508181036000830152613609816135cd565b9050919050565b7f455243313135353a20696e73756666696369656e742062616c616e636520666f60008201527f72207472616e7366657200000000000000000000000000000000000000000000602082015250565b600061366c602a83612592565b915061367782613610565b604082019050919050565b6000602082019050818103600083015261369b8161365f565b9050919050565b60006136ad826123a6565b91506136b8836123a6565b9250827fffffffffffffffffffffffffffffffffffffffffffffffffffffffffffffffff038211156136ed576136ec61328a565b5b828201905092915050565b600060408201905081810360008301526137128185612b71565b905081810360208301526137268184612b71565b90509392505050565b7f455243313135353a2073657474696e6720617070726f76616c2073746174757360008201527f20666f722073656c660000000000000000000000000000000000000000000000602082015250565b600061378b602983612592565b91506137968261372f565b604082019050919050565b600060208201905081810360008301526137ba8161377e565b9050919050565b7f455243313135353a206d696e7420746f20746865207a65726f2061646472657360008201527f7300000000000000000000000000000000000000000000000000000000000000602082015250565b600061381d602183612592565b9150613828826137c1565b604082019050919050565b6000602082019050818103600083015261384c81613810565b9050919050565b6000604082019050613868600083018561241c565b613875602083018461241c565b9392505050565b600081519050919050565b600082825260208201905092915050565b60006138a38261387c565b6138ad8185613887565b93506138bd8185602086016125a3565b6138c6816125d6565b840191505092915050565b600060a0820190506138e66000830188612cdb565b6138f36020830187612cdb565b81810360408301526139058186612b71565b905081810360608301526139198185612b71565b9050818103608083015261392d8184613898565b90509695505050505050565b60008151905061394881612472565b92915050565b6000602082840312156139645761396361233e565b5b600061397284828501613939565b91505092915050565b60008160e01c9050919050565b600060033d11156139a75760046000803e6139a460005161397b565b90505b90565b600060443d10156139ba57613a3d565b6139c2612334565b60043d036004823e80513d602482011167ffffffffffffffff821117156139ea575050613a3d565b808201805167ffffffffffffffff811115613a085750505050613a3d565b80602083010160043d038501811115613a25575050505050613a3d565b613a348260200185018661273e565b82955050505050505b90565b7f455243313135353a207472616e7366657220746f206e6f6e204552433131353560008201527f526563656976657220696d706c656d656e746572000000000000000000000000602082015250565b6000613a9c603483612592565b9150613aa782613a40565b604082019050919050565b60006020820190508181036000830152613acb81613a8f565b9050919050565b7f455243313135353a204552433131353552656365697665722072656a6563746560008201527f6420746f6b656e73000000000000000000000000000000000000000000000000602082015250565b6000613b2e602883612592565b9150613b3982613ad2565b604082019050919050565b60006020820190508181036000830152613b5d81613b21565b9050919050565b600060a082019050613b796000830188612cdb565b613b866020830187612cdb565b613b93604083018661241c565b613ba0606083018561241c565b8181036080830152613bb28184613898565b9050969550505050505056fea26469706673582212209ed52f628419fc37779adaf9b29b661d485a3c7ac8b435cfa67dd9ac09ea810a64736f6c634300080b0033",
  "linkReferences": {},
  "deployedLinkReferences": {}
}